:100000000C9461000C947E000C947E000C947E0095
:100010000C947E000C947E000C947E000C947E0068
:100020000C947E000C947E000C947E000C947E0058
:100030000C947E000C947E000C947E000C947E0048
:100040000C9414010C947E000C947E000C947E00A1
:100050000C947E000C947E000C947E000C947E0028
:100060000C947E000C947E00000000002400270009
:100070002A0000000000250028002B0000000000DE
:1000800023002600290004040404040404040202DA
:100090000202020203030303030301020408102007
:1000A0004080010204081020010204081020000012
:1000B0000007000201000003040600000000000029
:1000C000000011241FBECFEFD8E0DEBFCDBF11E08E
:1000D000A0E0B1E0E8E2F5E002C005900D92AE309C
:1000E000B107D9F711E0AEE0B1E001C01D92A73130
:1000F000B107E1F70E9483020C9492020C94000075
:100100001F93CF93DF93EC01142F60E0442309F495
:1001100061E088810E942F028A81612F0E942F0254
:10012000DF91CF911F9108950F931F938C0180E071
:1001300091E0B80140E00E94800084E091E0B801C5
:1001400040E00E9480001F910F9108950F931F932C
:100150008C0180E091E0B80141E00E94800084E0E1
:1001600091E0B80141E00E9480001F910F91089535
:100170008091000160E00E942F028091020160E006
:100180000E942F028091040160E00E942F02809162
:10019000060160E00E942F0208958091000161E055
:1001A0000E94F0018091040161E00E94F0018091C1
:1001B000020161E00E94F0018091060161E00E946D
:1001C000F00108950E94CD0008958091080190915A
:1001D00009010E94A60060910A0170910B01882715
:1001E00077FD8095982F0E945C010E94B800609175
:1001F0000C0170910D01882777FD8095982F0E9442
:100200005C0180910801909109010E949400609125
:100210000A0170910B01882777FD8095982F0E9425
:100220005C010E94B80008951F920F920FB60F92C2
:1002300011242F933F938F939F93AF93BF938091FC
:10024000120190911301A0911401B0911501309108
:1002500016010196A11DB11D232F2D5F2D3720F012
:100260002D570196A11DB11D2093160180931201F7
:1002700090931301A0931401B093150180910E0186
:1002800090910F01A0911001B09111010196A11D53
:10029000B11D80930E0190930F01A0931001B093B4
:1002A0001101BF91AF919F918F913F912F910F902D
:1002B0000FBE0F901F9018959B01AC017FB7F8946B
:1002C00080910E0190910F01A0911001B091110148
:1002D00066B5A89B05C06F3F19F00196A11DB11D21
:1002E0007FBFBA2FA92F982F8827860F911DA11D98
:1002F000B11D62E0880F991FAA1FBB1F6A95D1F735
:10030000BC012DC0FFB7F89480910E0190910F01B0
:10031000A0911001B0911101E6B5A89B05C0EF3F77
:1003200019F00196A11DB11DFFBFBA2FA92F982F5B
:1003300088278E0F911DA11DB11DE2E0880F991F26
:10034000AA1FBB1FEA95D1F7861B970B885E9340C7
:10035000C8F2215030404040504068517C4F211538
:1003600031054105510571F60895789484B5826090
:1003700084BD84B5816084BD85B5826085BD85B549
:10038000816085BDEEE6F0E0808181608083E1E8F8
:10039000F0E0108280818260808380818160808330
:1003A000E0E8F0E0808181608083E1EBF0E0808133
:1003B00084608083E0EBF0E0808181608083EAE705
:1003C000F0E080818460808380818260808380818E
:1003D000816080838081806880831092C10008954D
:1003E000CF93DF93482F50E0CA0186569F4FFC0100
:1003F00034914A575F4FFA018491882369F190E064
:10040000880F991FFC01E859FF4FA591B491FC0199
:10041000EE58FF4FC591D491662351F42FB7F8944D
:100420008C91932F909589238C93888189230BC07D
:10043000623061F42FB7F8948C91932F90958923B3
:100440008C938881832B88832FBF06C09FB7F89435
:100450008C91832B8C939FBFDF91CF910895482F70
:1004600050E0CA0182559F4FFC012491CA01865673
:100470009F4FFC0194914A575F4FFA013491332307
:1004800009F440C0222351F1233071F0243028F4C4
:100490002130A1F0223011F514C02630B1F0273000
:1004A000C1F02430D9F404C0809180008F7703C05C
:1004B000809180008F7D8093800010C084B58F77FD
:1004C00002C084B58F7D84BD09C08091B0008F7754
:1004D00003C08091B0008F7D8093B000E32FF0E0E7
:1004E000EE0FFF1FEE58FF4FA591B4912FB7F89470
:1004F000662321F48C919095892302C08C91892BDD
:100500008C932FBF0895CF93DF930E94B5010E9473
:10051000E200C0E0D0E00E94E5002097E1F30E94F5
:080520000000F9CFF894FFCFB1
:0E0528000500060009000A00FF00204E88139F
:00000001FF
